{
  "contractName": "MultiSig",
  "abi": [
    {
      "constant": true,
      "inputs": [
        {
          "name": "",
          "type": "address"
        }
      ],
      "name": "owners",
      "outputs": [
        {
          "name": "",
          "type": "bool"
        }
      ],
      "payable": false,
      "stateMutability": "view",
      "type": "function"
    },
    {
      "constant": true,
      "inputs": [],
      "name": "threshold",
      "outputs": [
        {
          "name": "",
          "type": "uint256"
        }
      ],
      "payable": false,
      "stateMutability": "view",
      "type": "function"
    },
    {
      "constant": true,
      "inputs": [],
      "name": "nonce",
      "outputs": [
        {
          "name": "",
          "type": "uint256"
        }
      ],
      "payable": false,
      "stateMutability": "view",
      "type": "function"
    },
    {
      "inputs": [
        {
          "name": "_threshold",
          "type": "uint256"
        },
        {
          "name": "_owners",
          "type": "address[]"
        }
      ],
      "payable": false,
      "stateMutability": "nonpayable",
      "type": "constructor"
    },
    {
      "payable": true,
      "stateMutability": "payable",
      "type": "fallback"
    },
    {
      "anonymous": false,
      "inputs": [
        {
          "indexed": true,
          "name": "value",
          "type": "uint256"
        }
      ],
      "name": "Debug",
      "type": "event"
    },
    {
      "constant": false,
      "inputs": [
        {
          "name": "_to",
          "type": "address"
        },
        {
          "name": "_amount",
          "type": "uint256"
        },
        {
          "name": "_data",
          "type": "bytes"
        },
        {
          "name": "_nonce",
          "type": "uint256"
        },
        {
          "name": "_signatures",
          "type": "bytes[]"
        }
      ],
      "name": "payEther",
      "outputs": [
        {
          "name": "",
          "type": "bool"
        }
      ],
      "payable": false,
      "stateMutability": "nonpayable",
      "type": "function"
    },
    {
      "constant": true,
      "inputs": [
        {
          "name": "_to",
          "type": "address"
        },
        {
          "name": "_amount",
          "type": "uint256"
        },
        {
          "name": "_data",
          "type": "bytes"
        },
        {
          "name": "_nonce",
          "type": "uint256"
        },
        {
          "name": "_signature",
          "type": "bytes"
        }
      ],
      "name": "getAddressFromSignature",
      "outputs": [
        {
          "name": "",
          "type": "address"
        }
      ],
      "payable": false,
      "stateMutability": "view",
      "type": "function"
    }
  ],
  "bytecode": "0x60806040523480156200001157600080fd5b5060405162000df938038062000df983398101806040526200003791908101906200027f565b6000806000841180156200004c575082518411155b151562000090576040517f08c379a0000000000000000000000000000000000000000000000000000000008152600401620000879062000347565b60405180910390fd5b83600281905550600060018190555060009150600090505b8251811015620001ba578173ffffffffffffffffffffffffffffffffffffffff168382815181101515620000d857fe5b9060200190602002015173ffffffffffffffffffffffffffffffffffffffff161115156200013d576040517f08c379a0000000000000000000000000000000000000000000000000000000008152600401620001349062000369565b60405180910390fd5b600160008085848151811015156200015157fe5b9060200190602002015173ffffffffffffffffffffffffffffffffffffffff1673ffffffffffffffffffffffffffffffffffffffff16815260200190815260200160002060006101000a81548160ff0219169083151502179055508080600101915050620000a8565b505050506200040c565b6000620001d28251620003e2565b905092915050565b600082601f8301121515620001ee57600080fd5b815162000205620001ff82620003b9565b6200038b565b915081818352602084019350602081019050838560208402820111156200022b57600080fd5b60005b838110156200025f5781620002448882620001c4565b8452602084019350602083019250506001810190506200022e565b5050505092915050565b600062000277825162000402565b905092915050565b600080604083850312156200029357600080fd5b6000620002a38582860162000269565b925050602083015167ffffffffffffffff811115620002c157600080fd5b620002cf85828601620001da565b9150509250929050565b6000601182527f696e76616c6964207468726573686f6c640000000000000000000000000000006020830152604082019050919050565b6000601782527f696e76616c6964206f72646572206f66206f776e6572730000000000000000006020830152604082019050919050565b600060208201905081810360008301526200036281620002d9565b9050919050565b60006020820190508181036000830152620003848162000310565b9050919050565b6000604051905081810181811067ffffffffffffffff82111715620003af57600080fd5b8060405250919050565b600067ffffffffffffffff821115620003d157600080fd5b602082029050602081019050919050565b600073ffffffffffffffffffffffffffffffffffffffff82169050919050565b6000819050919050565b6109dd806200041c6000396000f30060806040526004361061006d576000357c0100000000000000000000000000000000000000000000000000000000900463ffffffff168063022914a71461006f57806342cde4e8146100ac5780634ef1ba36146100d75780636e7fdcd014610114578063affed0e014610151575b005b34801561007b57600080fd5b5061009660048036036100919190810190610618565b61017c565b6040516100a391906107f5565b60405180910390f35b3480156100b857600080fd5b506100c161019c565b6040516100ce9190610855565b60405180910390f35b3480156100e357600080fd5b506100fe60048036036100f99190810190610641565b6101a2565b60405161010b91906107f5565b60405180910390f35b34801561012057600080fd5b5061013b600480360361013691908101906106e8565b610241565b60405161014891906107da565b60405180910390f35b34801561015d57600080fd5b50610166610397565b6040516101739190610855565b60405180910390f35b60006020528060005260406000206000915054906101000a900460ff1681565b60025481565b600081517f8a36f5a234186d446e36a7df36ace663a05a580d9bea2dd899c6dd76a075d5fa60405160405180910390a26101e76001805461039d90919063ffffffff16565b6001819055508573ffffffffffffffffffffffffffffffffffffffff166108fc869081150290604051600060405180830381858888f19350505050158015610233573d6000803e3d6000fd5b506001905095945050505050565b60008061037287878787604051602001808573ffffffffffffffffffffffffffffffffffffffff1673ffffffffffffffffffffffffffffffffffffffff166c0100000000000000000000000002815260140184815260200183805190602001908083835b6020831015156102ca57805182526020820191506020810190506020830392506102a5565b6001836020036101000a0380198251168184511680821785525050505050509050018281526020019450505050506040516020818303038152906040526040518082805190602001908083835b60208310151561033c5780518252602082019150602081019050602083039250610317565b6001836020036101000a0380198251168184511680821785525050505050509050019150506040518091039020600019166103b9565b905061038b83826000191661040890919063ffffffff16565b91505095945050505050565b60015481565b600081830190508281101515156103b057fe5b80905092915050565b60008160405180807f19457468657265756d205369676e6564204d6573736167653a0a333200000000815250601c01826000191660001916815260200191505060405180910390209050919050565b6000806000806041855114151561042257600093506104c5565b6020850151925060408501519150606085015160001a9050601b8160ff16101561044d57601b810190505b601b8160ff16141580156104655750601c8160ff1614155b1561047357600093506104c5565b600186828585604051600081526020016040526040516104969493929190610810565b6020604051602081039080840390855afa1580156104b8573d6000803e3d6000fd5b5050506020604051035193505b50505092915050565b60006104da823561096a565b905092915050565b600082601f83011215156104f557600080fd5b81356105086105038261089d565b610870565b9150818183526020840193506020810190508360005b8381101561054e57813586016105348882610558565b84526020840193506020830192505060018101905061051e565b5050505092915050565b600082601f830112151561056b57600080fd5b813561057e610579826108c5565b610870565b9150808252602083016020830185838301111561059a57600080fd5b6105a5838284610994565b50505092915050565b600082601f83011215156105c157600080fd5b81356105d46105cf826108f1565b610870565b915080825260208301602083018583830111156105f057600080fd5b6105fb838284610994565b50505092915050565b6000610610823561098a565b905092915050565b60006020828403121561062a57600080fd5b6000610638848285016104ce565b91505092915050565b600080600080600060a0868803121561065957600080fd5b6000610667888289016104ce565b955050602061067888828901610604565b945050604086013567ffffffffffffffff81111561069557600080fd5b6106a1888289016105ae565b93505060606106b288828901610604565b925050608086013567ffffffffffffffff8111156106cf57600080fd5b6106db888289016104e2565b9150509295509295909350565b600080600080600060a0868803121561070057600080fd5b600061070e888289016104ce565b955050602061071f88828901610604565b945050604086013567ffffffffffffffff81111561073c57600080fd5b610748888289016105ae565b935050606061075988828901610604565b925050608086013567ffffffffffffffff81111561077657600080fd5b610782888289016105ae565b9150509295509295909350565b6107988161091d565b82525050565b6107a78161093d565b82525050565b6107b681610949565b82525050565b6107c581610953565b82525050565b6107d48161095d565b82525050565b60006020820190506107ef600083018461078f565b92915050565b600060208201905061080a600083018461079e565b92915050565b600060808201905061082560008301876107ad565b61083260208301866107cb565b61083f60408301856107ad565b61084c60608301846107ad565b95945050505050565b600060208201905061086a60008301846107bc565b92915050565b6000604051905081810181811067ffffffffffffffff8211171561089357600080fd5b8060405250919050565b600067ffffffffffffffff8211156108b457600080fd5b602082029050602081019050919050565b600067ffffffffffffffff8211156108dc57600080fd5b601f19601f8301169050602081019050919050565b600067ffffffffffffffff82111561090857600080fd5b601f19601f8301169050602081019050919050565b600073ffffffffffffffffffffffffffffffffffffffff82169050919050565b60008115159050919050565b6000819050919050565b6000819050919050565b600060ff82169050919050565b600073ffffffffffffffffffffffffffffffffffffffff82169050919050565b6000819050919050565b828183376000838301525050505600a265627a7a723058201a92f4f946ed90fee2640b03abb64ebb2edac037ddd58dae36140187e5dec6ef6c6578706572696d656e74616cf50037",
  "source": "pragma solidity ^0.4.24;\r\npragma experimental ABIEncoderV2;\r\npragma experimental \"v0.5.0\";\r\n\r\nimport \"openzeppelin-solidity/contracts/ECRecovery.sol\";\r\nimport \"openzeppelin-solidity/contracts/math/SafeMath.sol\";\r\n\r\n/**\r\n * @title MultiSig\r\n * @author SylTi\r\n * @dev Very simple multisig limiting attack surface for both Ether and Tokens (ERC20)\r\n * require owners and signatures to be sorted in alphabetical order before being inputed or will fail.\r\n */\r\n\r\n\r\ncontract MultiSig {\r\n\r\n  using SafeMath for uint256;\r\n  using ECRecovery for bytes32;\r\n\r\n\t// mapping(address => uint256) public OperatorsBalance;\r\n  // address[] public owners;\r\n  mapping(address => bool) public owners;\r\n\r\n  uint256 public nonce;\r\n  uint256 public threshold;\r\n\r\n  constructor(uint256 _threshold, address[] _owners) public {\r\n    require(\r\n      _threshold > 0 && _threshold <= _owners.length, \r\n      \"invalid threshold\"\r\n    );\r\n    threshold = _threshold;\r\n    nonce = 0;\r\n    address previousOwner = address(0);\r\n    for (uint256 i = 0; i < _owners.length; i++) {\r\n      require(_owners[i] > previousOwner, \"invalid order of owners\");\r\n      owners[_owners[i]] = true;\r\n    }\r\n  }\r\n\r\n  function () external payable {\r\n\r\n  }\r\n\r\n\r\n  event Debug(uint256 indexed value);\r\n\r\n\r\n  /**\r\n   * @dev Function to pay ether\r\n   * @param _to The address that will receive the ethers.\r\n   * @param _amount The amount of ethers to send.\r\n   * @param _data Used to call a function on a contract. Exemple: bytes4(keccak256(\"someFunc(bool, uint256)\")), true, 3)\r\n   * @param _nonce Unique value used to prevent reuse of past signatures \r\n   * @param _signatures Signatures of the hash\r\n   * @return A boolean that indicates if the operation was successful.\r\n   */\r\n  function payEther(\r\n    address _to,\r\n    uint256 _amount,\r\n    bytes   _data,\r\n    uint256 _nonce,\r\n    bytes[] _signatures\r\n  ) public returns (bool)\r\n  {\r\n    // require(_nonce == nonce.add(1), \"invalid nonce\");\r\n    // require(_to != address(0), \"invalid address\");\r\n    // require(_amount > 0, \"invalid amount\");\r\n    // require(_signatures.length >= threshold);\r\n\r\n    emit Debug(_signatures.length);\r\n    /*address previousOwner = address(0);\r\n    for (uint256 i = 0; i < _signatures.length; i++) {\r\n      address currentAddress = getAddressFromSignature(\r\n        _to, \r\n        _amount, \r\n        _data,\r\n        _nonce, \r\n        _signatures[i]\r\n      );\r\n      emit Debug(i);\r\n      // require(owners[currentAddress], \"signature not from owner\");\r\n      // require(currentAddress > previousOwner, \"invalid order of signature\");\r\n    }*/\r\n    nonce = nonce.add(1);\r\n    // require(_to.call.value(_amount)(_data), \"send failed\");\r\n    _to.transfer(_amount);\r\n    return true;\r\n  }\r\n\r\n  function getAddressFromSignature(\r\n    address _to, \r\n    uint256 _amount, \r\n    bytes   _data,\r\n    uint256 _nonce, \r\n    bytes   _signature\r\n  )  public view returns (address) \r\n  {\r\n    bytes32 proof = keccak256(\r\n      abi.encodePacked(\r\n        // address(this), \r\n        _to, \r\n        _amount, \r\n        _data,\r\n        _nonce\r\n        )\r\n      ).toEthSignedMessageHash();\r\n    return (proof.recover(_signature));\r\n  }\r\n}\r\n",
  "sourcePath": "D:\\taff\\currentWork\\ethereum\\solidity-smart-contracts\\contracts\\MultiSig.sol",
  "compiler": {
    "name": "solc",
    "version": "0.4.24+commit.e67f0147.Emscripten.clang"
  },
  "schemaVersion": "2.0.1",
  "updatedAt": "2018-07-06T21:13:40.078Z"
}