{
  "contractName": "PrivacyJudge",
  "abi": [
    {
      "payable": true,
      "stateMutability": "payable",
      "type": "fallback"
    },
    {
      "anonymous": false,
      "inputs": [
        {
          "indexed": false,
          "name": "balance",
          "type": "uint256"
        },
        {
          "indexed": false,
          "name": "deployedAddress",
          "type": "address"
        }
      ],
      "name": "LogContractSettlement",
      "type": "event"
    },
    {
      "anonymous": false,
      "inputs": [
        {
          "indexed": false,
          "name": "depositer",
          "type": "address"
        },
        {
          "indexed": false,
          "name": "amount",
          "type": "uint256"
        }
      ],
      "name": "LogDeposit",
      "type": "event"
    },
    {
      "constant": false,
      "inputs": [
        {
          "name": "hashed",
          "type": "bytes32"
        },
        {
          "name": "signature",
          "type": "bytes"
        },
        {
          "name": "code",
          "type": "bytes"
        }
      ],
      "name": "executeContract",
      "outputs": [],
      "payable": false,
      "stateMutability": "nonpayable",
      "type": "function"
    },
    {
      "constant": false,
      "inputs": [
        {
          "name": "code",
          "type": "bytes"
        }
      ],
      "name": "testDeployment",
      "outputs": [
        {
          "name": "addr",
          "type": "address"
        }
      ],
      "payable": false,
      "stateMutability": "nonpayable",
      "type": "function"
    },
    {
      "constant": true,
      "inputs": [
        {
          "name": "hashed",
          "type": "bytes32"
        },
        {
          "name": "signature",
          "type": "bytes"
        },
        {
          "name": "code",
          "type": "bytes"
        }
      ],
      "name": "isContractValid",
      "outputs": [
        {
          "name": "",
          "type": "bool"
        }
      ],
      "payable": false,
      "stateMutability": "view",
      "type": "function"
    },
    {
      "constant": false,
      "inputs": [],
      "name": "releasePayment",
      "outputs": [],
      "payable": false,
      "stateMutability": "nonpayable",
      "type": "function"
    },
    {
      "constant": false,
      "inputs": [],
      "name": "resetContract",
      "outputs": [],
      "payable": false,
      "stateMutability": "nonpayable",
      "type": "function"
    }
  ],
  "bytecode": "0x6080604052600160035534801561001557600080fd5b506110e0806100256000396000f30060806040526004361061006d576000357c0100000000000000000000000000000000000000000000000000000000900463ffffffff16806385fbe8d714610324578063b181a8fc146103cd578063d116c8c4146103e4578063f0f546b7146103fb578063fb8c9281146104b8575b600073ffffffffffffffffffffffffffffffffffffffff166000809054906101000a900473ffffffffffffffffffffffffffffffffffffffff1673ffffffffffffffffffffffffffffffffffffffff1614806101175750600073ffffffffffffffffffffffffffffffffffffffff16600160009054906101000a900473ffffffffffffffffffffffffffffffffffffffff1673ffffffffffffffffffffffffffffffffffffffff16145b151561012257600080fd5b60003411151561013157600080fd5b600073ffffffffffffffffffffffffffffffffffffffff166000809054906101000a900473ffffffffffffffffffffffffffffffffffffffff1673ffffffffffffffffffffffffffffffffffffffff1614156101d357336000806101000a81548173ffffffffffffffffffffffffffffffffffffffff021916908373ffffffffffffffffffffffffffffffffffffffff160217905550346002819055506102b7565b600254341415156101e357600080fd5b6000809054906101000a900473ffffffffffffffffffffffffffffffffffffffff1673ffffffffffffffffffffffffffffffffffffffff163373ffffffffffffffffffffffffffffffffffffffff161415151561023f57600080fd5b33600160006101000a81548173ffffffffffffffffffffffffffffffffffffffff021916908373ffffffffffffffffffffffffffffffffffffffff1602179055506102956002805461058d90919063ffffffff16565b3073ffffffffffffffffffffffffffffffffffffffff16311415156102b657fe5b5b7f1b851e1031ef35a238e6c67d0c7991162390df915f70eaf9098dbf0b175a61983334604051808373ffffffffffffffffffffffffffffffffffffffff1673ffffffffffffffffffffffffffffffffffffffff1681526020018281526020019250505060405180910390a1005b34801561033057600080fd5b5061038b600480360381019080803590602001908201803590602001908080601f01602080910402602001604051908101604052809392919081815260200183838082843782019150505050505091929192905050506105c5565b604051808273ffffffffffffffffffffffffffffffffffffffff1673ffffffffffffffffffffffffffffffffffffffff16815260200191505060405180910390f35b3480156103d957600080fd5b506103e261066f565b005b3480156103f057600080fd5b506103f96107ca565b005b34801561040757600080fd5b506104b66004803603810190808035600019169060200190929190803590602001908201803590602001908080601f0160208091040260200160405190810160405280939291908181526020018383808284378201915050505050509192919290803590602001908201803590602001908080601f0160208091040260200160405190810160405280939291908181526020018383808284378201915050505050509192919290505050610bc2565b005b3480156104c457600080fd5b506105736004803603810190808035600019169060200190929190803590602001908201803590602001908080601f0160208091040260200160405190810160405280939291908181526020018383808284378201915050505050509192919290803590602001908201803590602001908080601f0160208091040260200160405190810160405280939291908181526020018383808284378201915050505050509192919290505050610e41565b604051808215151515815260200191505060405180910390f35b6000808314156105a057600090506105bf565b81830290508183828115156105b157fe5b041415156105bb57fe5b8090505b92915050565b60008151602083016000f09050803b15600181146105e2576105e7565b600080fd5b507f0e398b423c1160739b8904087f059c944ee297e56d266e83f31a0076961cea7f3073ffffffffffffffffffffffffffffffffffffffff163182604051808381526020018273ffffffffffffffffffffffffffffffffffffffff1673ffffffffffffffffffffffffffffffffffffffff1681526020019250505060405180910390a1919050565b6000809054906101000a900473ffffffffffffffffffffffffffffffffffffffff1673ffffffffffffffffffffffffffffffffffffffff163373ffffffffffffffffffffffffffffffffffffffff1614806107175750600160009054906101000a900473ffffffffffffffffffffffffffffffffffffffff1673ffffffffffffffffffffffffffffffffffffffff163373ffffffffffffffffffffffffffffffffffffffff16145b151561072257600080fd5b600460009054906101000a900460ff16151561073d57600080fd5b600060028190555060008060006101000a81548173ffffffffffffffffffffffffffffffffffffffff021916908373ffffffffffffffffffffffffffffffffffffffff1602179055506000600160006101000a81548173ffffffffffffffffffffffffffffffffffffffff021916908373ffffffffffffffffffffffffffffffffffffffff160217905550565b6000809054906101000a900473ffffffffffffffffffffffffffffffffffffffff1673ffffffffffffffffffffffffffffffffffffffff163373ffffffffffffffffffffffffffffffffffffffff1614806108725750600160009054906101000a900473ffffffffffffffffffffffffffffffffffffffff1673ffffffffffffffffffffffffffffffffffffffff163373ffffffffffffffffffffffffffffffffffffffff16145b151561087d57600080fd5b6000809054906101000a900473ffffffffffffffffffffffffffffffffffffffff1673ffffffffffffffffffffffffffffffffffffffff163373ffffffffffffffffffffffffffffffffffffffff161415610a1257600160009054906101000a900473ffffffffffffffffffffffffffffffffffffffff1673ffffffffffffffffffffffffffffffffffffffff166108fc61097661095060646109426003543073ffffffffffffffffffffffffffffffffffffffff163161058d90919063ffffffff16565b610f8f90919063ffffffff16565b3073ffffffffffffffffffffffffffffffffffffffff1631610fa590919063ffffffff16565b9081150290604051600060405180830381858888f19350505050151561099857fe5b6000809054906101000a900473ffffffffffffffffffffffffffffffffffffffff1673ffffffffffffffffffffffffffffffffffffffff166108fc3073ffffffffffffffffffffffffffffffffffffffff16319081150290604051600060405180830381858888f193505050501515610a0d57fe5b610ba5565b600160009054906101000a900473ffffffffffffffffffffffffffffffffffffffff1673ffffffffffffffffffffffffffffffffffffffff163373ffffffffffffffffffffffffffffffffffffffff161415610ba4576000809054906101000a900473ffffffffffffffffffffffffffffffffffffffff1673ffffffffffffffffffffffffffffffffffffffff166108fc610b0b610ae56064610ad76003543073ffffffffffffffffffffffffffffffffffffffff163161058d90919063ffffffff16565b610f8f90919063ffffffff16565b3073ffffffffffffffffffffffffffffffffffffffff1631610fa590919063ffffffff16565b9081150290604051600060405180830381858888f193505050501515610b2d57fe5b600160009054906101000a900473ffffffffffffffffffffffffffffffffffffffff1673ffffffffffffffffffffffffffffffffffffffff166108fc3073ffffffffffffffffffffffffffffffffffffffff16319081150290604051600060405180830381858888f193505050501515610ba357fe5b5b5b6001600460006101000a81548160ff021916908315150217905550565b60008060009054906101000a900473ffffffffffffffffffffffffffffffffffffffff1673ffffffffffffffffffffffffffffffffffffffff163373ffffffffffffffffffffffffffffffffffffffff161480610c6c5750600160009054906101000a900473ffffffffffffffffffffffffffffffffffffffff1673ffffffffffffffffffffffffffffffffffffffff163373ffffffffffffffffffffffffffffffffffffffff16145b1515610c7757600080fd5b600460009054906101000a900460ff16151515610c9357600080fd5b610c9e848484610e41565b1515610ca957600080fd5b8151602083016000f09050803b1560018114610cc457610cc9565b600080fd5b507f0e398b423c1160739b8904087f059c944ee297e56d266e83f31a0076961cea7f3073ffffffffffffffffffffffffffffffffffffffff163182604051808381526020018273ffffffffffffffffffffffffffffffffffffffff1673ffffffffffffffffffffffffffffffffffffffff1681526020019250505060405180910390a18073ffffffffffffffffffffffffffffffffffffffff1662030d403073ffffffffffffffffffffffffffffffffffffffff163160405180807f6578656375746528290000000000000000000000000000000000000000000000815250600901905060405180910390207c0100000000000000000000000000000000000000000000000000000000900491906040518363ffffffff167c0100000000000000000000000000000000000000000000000000000000028152600401600060405180830381858988f19450505050501515610e2057fe5b6001600460006101000a81548160ff02191690831515021790555050505050565b6000806000610e5d858760001916610fbe90919063ffffffff16565b91506000809054906101000a900473ffffffffffffffffffffffffffffffffffffffff1673ffffffffffffffffffffffffffffffffffffffff168273ffffffffffffffffffffffffffffffffffffffff1614158015610f0a5750600160009054906101000a900473ffffffffffffffffffffffffffffffffffffffff1673ffffffffffffffffffffffffffffffffffffffff168273ffffffffffffffffffffffffffffffffffffffff1614155b15610f1457600080fd5b836040518082805190602001908083835b602083101515610f4a5780518252602082019150602081019050602083039250610f25565b6001836020036101000a038019825116818451168082178552505050505050905001915050604051809103902090508560001916816000191614925050509392505050565b60008183811515610f9c57fe5b04905092915050565b6000828211151515610fb357fe5b818303905092915050565b60008060008060418551141515610fd857600093506110ab565b6020850151925060408501519150606085015160001a9050601b8160ff16101561100357601b810190505b601b8160ff161415801561101b5750601c8160ff1614155b1561102957600093506110ab565b600186828585604051600081526020016040526040518085600019166000191681526020018460ff1660ff168152602001836000191660001916815260200182600019166000191681526020019450505050506020604051602081039080840390855afa15801561109e573d6000803e3d6000fd5b5050506020604051035193505b505050929150505600a165627a7a723058201fa48792b98369cad6e5cd726115c35025efb882d14922b933356d32185dd3460029",
  "source": "pragma solidity ^0.4.24;\r\npragma experimental \"v0.5.0\";\r\n\r\nimport \"openzeppelin-solidity/contracts/ECRecovery.sol\";\r\nimport \"openzeppelin-solidity/contracts/math/SafeMath.sol\";\r\n\r\n/**\r\n * @title PrivateContractEnforcer\r\n * @author SylTi\r\n * @dev This kind of construct allows for a smart contract between two entities to remains private as long as they cooperate with each other. \r\n *      Cooperation is incentived by the use of a collateral\r\n */\r\n\r\n\r\ncontract PrivacyJudge {\r\n  \r\n  using ECRecovery for bytes32;\r\n  using SafeMath for uint256;\r\n  address user1;\r\n  address user2;\r\n  uint amountToMatch;\r\n  //percentage of bet used as collateral. This is necessary to incentivize voluntary release of funds\r\n  uint collateralPercentage = 1; \r\n  bool finalized;\r\n\r\n  event LogContractSettlement(uint balance, address deployedAddress);\r\n  event LogDeposit(address depositer, uint amount);\r\n\r\n  modifier isUser() {\r\n    require(msg.sender == user1 || msg.sender == user2);\r\n    _;\r\n  }\r\n  \r\n  function () external payable {\r\n    require(user1 == address(0) || user2 == address(0));\r\n    require(msg.value > 0);\r\n    if (user1 == address(0)) {\r\n      user1 = msg.sender;\r\n      amountToMatch = msg.value;\r\n    } else {\r\n      require(msg.value == amountToMatch);\r\n      require(msg.sender != user1);\r\n      user2 = msg.sender;\r\n      assert(address(this).balance == amountToMatch.mul(2));\r\n    }\r\n    emit LogDeposit(msg.sender, msg.value);\r\n  }\r\n\r\n  function executeContract(\r\n    bytes32 hashed, \r\n    bytes signature, \r\n    bytes code\r\n  ) public isUser \r\n  {\r\n    require(!finalized);\r\n    require(isContractValid(hashed, signature, code));\r\n    address deployedAddress;\r\n    //create contract in assembly, and jump if deployment failed: no code at address\r\n    assembly {\r\n      deployedAddress := create(0, add(code, 0x20), mload(code))\r\n      switch iszero(extcodesize(deployedAddress))\r\n        case 1 { revert(0, 0) } // throw if contract failed to deploy\r\n    }\r\n    emit LogContractSettlement(address(this).balance, deployedAddress);\r\n    assert(\r\n      deployedAddress.call.gas(200000).value(address(this).balance)(bytes4(keccak256(\"execute()\")))\r\n    );\r\n    finalized = true;\r\n  }\r\n\r\n  function testDeployment(bytes code) public returns (address addr) {\r\n    //create contract in assembly, and jump if deployment failed: no code at address\r\n    assembly {\r\n      addr := create(0, add(code, 0x20), mload(code))\r\n      switch iszero(extcodesize(addr))\r\n        case 1 { revert(0, 0) } // throw if contract failed to deploy\r\n    }\r\n    emit LogContractSettlement(address(this).balance, addr);\r\n  }\r\n\r\n  function isContractValid(\r\n    bytes32 hashed, \r\n    bytes signature, \r\n    bytes code\r\n  ) public view returns (bool) \r\n  {\r\n    address signer;\r\n    bytes32 proof;\r\n    // bytes memory prefix = \"\\x19Ethereum Signed Message:\\n\";\r\n    signer = hashed.recover(signature);\r\n\r\n    // if (signer == msg.sender) revert();\r\n    if (signer != user1 && signer != user2) \r\n      revert();\r\n    // proof = sha3(address(this), code);\r\n    // proof = keccak256(prefix, code);\r\n    proof = keccak256(code);\r\n\r\n    return (proof == hashed);\r\n  }\r\n\r\n  function releasePayment() public isUser {\r\n    if (msg.sender == user1) {\r\n      assert(\r\n        user2.send(address(this).balance.sub(address(this).balance.mul(collateralPercentage).div(100)))\r\n      );\r\n      assert(user1.send(address(this).balance));\r\n    } else if (msg.sender == user2) {\r\n      assert(\r\n        user1.send(address(this).balance.sub(address(this).balance.mul(collateralPercentage).div(100)))\r\n      );\r\n      assert(user2.send(address(this).balance));\r\n    }\r\n    finalized = true;\r\n  }\r\n\r\n  function resetContract() public isUser {\r\n    require(finalized);\r\n    amountToMatch = 0;\r\n    user1 = address(0);\r\n    user2 = address(0);\r\n  }\r\n}",
  "sourcePath": "D:\\taff\\currentWork\\ethereum\\solidity-smart-contracts\\contracts\\PrivacyJudge.sol",
  "compiler": {
    "name": "solc",
    "version": "0.4.24+commit.e67f0147.Emscripten.clang"
  },
  "schemaVersion": "2.0.1",
  "updatedAt": "2018-07-06T16:01:38.092Z"
}